{
  "_format": "hh-sol-artifact-1",
  "contractName": "AIAgentRegistry",
  "sourceName": "contracts/AIAgentRegistry.sol",
  "abi": [
    {
      "inputs": [],
      "stateMutability": "nonpayable",
      "type": "constructor"
    },
    {
      "inputs": [
        {
          "internalType": "address",
          "name": "target",
          "type": "address"
        }
      ],
      "name": "AddressEmptyCode",
      "type": "error"
    },
    {
      "inputs": [
        {
          "internalType": "address",
          "name": "implementation",
          "type": "address"
        }
      ],
      "name": "ERC1967InvalidImplementation",
      "type": "error"
    },
    {
      "inputs": [],
      "name": "ERC1967NonPayable",
      "type": "error"
    },
    {
      "inputs": [],
      "name": "FailedCall",
      "type": "error"
    },
    {
      "inputs": [],
      "name": "InvalidInitialization",
      "type": "error"
    },
    {
      "inputs": [],
      "name": "NotInitializing",
      "type": "error"
    },
    {
      "inputs": [
        {
          "internalType": "address",
          "name": "owner",
          "type": "address"
        }
      ],
      "name": "OwnableInvalidOwner",
      "type": "error"
    },
    {
      "inputs": [
        {
          "internalType": "address",
          "name": "account",
          "type": "address"
        }
      ],
      "name": "OwnableUnauthorizedAccount",
      "type": "error"
    },
    {
      "inputs": [],
      "name": "UUPSUnauthorizedCallContext",
      "type": "error"
    },
    {
      "inputs": [
        {
          "internalType": "bytes32",
          "name": "slot",
          "type": "bytes32"
        }
      ],
      "name": "UUPSUnsupportedProxiableUUID",
      "type": "error"
    },
    {
      "anonymous": false,
      "inputs": [
        {
          "indexed": true,
          "internalType": "uint256",
          "name": "agentId",
          "type": "uint256"
        },
        {
          "indexed": false,
          "internalType": "string",
          "name": "name",
          "type": "string"
        },
        {
          "indexed": false,
          "internalType": "string",
          "name": "description",
          "type": "string"
        },
        {
          "indexed": false,
          "internalType": "string",
          "name": "instruction",
          "type": "string"
        },
        {
          "indexed": false,
          "internalType": "string",
          "name": "model",
          "type": "string"
        },
        {
          "indexed": false,
          "internalType": "string",
          "name": "modelId",
          "type": "string"
        },
        {
          "indexed": true,
          "internalType": "address",
          "name": "agentToken",
          "type": "address"
        },
        {
          "indexed": true,
          "internalType": "address",
          "name": "daoAddress",
          "type": "address"
        }
      ],
      "name": "AgentRegistered",
      "type": "event"
    },
    {
      "anonymous": false,
      "inputs": [
        {
          "indexed": false,
          "internalType": "uint64",
          "name": "version",
          "type": "uint64"
        }
      ],
      "name": "Initialized",
      "type": "event"
    },
    {
      "anonymous": false,
      "inputs": [
        {
          "indexed": true,
          "internalType": "address",
          "name": "previousOwner",
          "type": "address"
        },
        {
          "indexed": true,
          "internalType": "address",
          "name": "newOwner",
          "type": "address"
        }
      ],
      "name": "OwnershipTransferred",
      "type": "event"
    },
    {
      "anonymous": false,
      "inputs": [
        {
          "indexed": true,
          "internalType": "address",
          "name": "implementation",
          "type": "address"
        }
      ],
      "name": "Upgraded",
      "type": "event"
    },
    {
      "inputs": [],
      "name": "UPGRADE_INTERFACE_VERSION",
      "outputs": [
        {
          "internalType": "string",
          "name": "",
          "type": "string"
        }
      ],
      "stateMutability": "view",
      "type": "function"
    },
    {
      "inputs": [],
      "name": "agentCount",
      "outputs": [
        {
          "internalType": "uint256",
          "name": "",
          "type": "uint256"
        }
      ],
      "stateMutability": "view",
      "type": "function"
    },
    {
      "inputs": [
        {
          "internalType": "uint256",
          "name": "",
          "type": "uint256"
        }
      ],
      "name": "agents",
      "outputs": [
        {
          "internalType": "string",
          "name": "name",
          "type": "string"
        },
        {
          "internalType": "string",
          "name": "description",
          "type": "string"
        },
        {
          "internalType": "string",
          "name": "instruction",
          "type": "string"
        },
        {
          "internalType": "string",
          "name": "model",
          "type": "string"
        },
        {
          "internalType": "string",
          "name": "modelId",
          "type": "string"
        },
        {
          "internalType": "address",
          "name": "agentToken",
          "type": "address"
        },
        {
          "internalType": "address",
          "name": "daoAddress",
          "type": "address"
        }
      ],
      "stateMutability": "view",
      "type": "function"
    },
    {
      "inputs": [
        {
          "internalType": "address",
          "name": "initialOwner",
          "type": "address"
        }
      ],
      "name": "initialize",
      "outputs": [],
      "stateMutability": "nonpayable",
      "type": "function"
    },
    {
      "inputs": [],
      "name": "owner",
      "outputs": [
        {
          "internalType": "address",
          "name": "",
          "type": "address"
        }
      ],
      "stateMutability": "view",
      "type": "function"
    },
    {
      "inputs": [],
      "name": "proxiableUUID",
      "outputs": [
        {
          "internalType": "bytes32",
          "name": "",
          "type": "bytes32"
        }
      ],
      "stateMutability": "view",
      "type": "function"
    },
    {
      "inputs": [
        {
          "internalType": "string",
          "name": "name",
          "type": "string"
        },
        {
          "internalType": "string",
          "name": "description",
          "type": "string"
        },
        {
          "internalType": "string",
          "name": "instruction",
          "type": "string"
        },
        {
          "internalType": "string",
          "name": "model",
          "type": "string"
        },
        {
          "internalType": "string",
          "name": "modelId",
          "type": "string"
        },
        {
          "internalType": "address",
          "name": "agentToken",
          "type": "address"
        },
        {
          "internalType": "address",
          "name": "daoAddress",
          "type": "address"
        }
      ],
      "name": "registerAgent",
      "outputs": [
        {
          "internalType": "uint256",
          "name": "",
          "type": "uint256"
        }
      ],
      "stateMutability": "nonpayable",
      "type": "function"
    },
    {
      "inputs": [],
      "name": "renounceOwnership",
      "outputs": [],
      "stateMutability": "nonpayable",
      "type": "function"
    },
    {
      "inputs": [
        {
          "internalType": "address",
          "name": "newOwner",
          "type": "address"
        }
      ],
      "name": "transferOwnership",
      "outputs": [],
      "stateMutability": "nonpayable",
      "type": "function"
    },
    {
      "inputs": [
        {
          "internalType": "uint256",
          "name": "agentId",
          "type": "uint256"
        },
        {
          "internalType": "string",
          "name": "newInstructions",
          "type": "string"
        }
      ],
      "name": "updateInstructions",
      "outputs": [],
      "stateMutability": "nonpayable",
      "type": "function"
    },
    {
      "inputs": [
        {
          "internalType": "address",
          "name": "newImplementation",
          "type": "address"
        },
        {
          "internalType": "bytes",
          "name": "data",
          "type": "bytes"
        }
      ],
      "name": "upgradeToAndCall",
      "outputs": [],
      "stateMutability": "payable",
      "type": "function"
    }
  ],
  "bytecode": "0x60a06040523073ffffffffffffffffffffffffffffffffffffffff1660809073ffffffffffffffffffffffffffffffffffffffff1681525034801561004357600080fd5b5060006100546101d260201b60201c565b905060008160000160089054906101000a900460ff1615905060008260000160009054906101000a900467ffffffffffffffff1690506000808267ffffffffffffffff161480156100a25750825b9050600060018367ffffffffffffffff161480156100d7575060003073ffffffffffffffffffffffffffffffffffffffff163b145b9050811580156100e5575080155b1561011c576040517ff92ee8a900000000000000000000000000000000000000000000000000000000815260040160405180910390fd5b60018560000160006101000a81548167ffffffffffffffff021916908367ffffffffffffffff160217905550831561016c5760018560000160086101000a81548160ff0219169083151502179055505b83156101c85760008560000160086101000a81548160ff0219169083151502179055507fc7f505b2f371ae2175ee4913f4499e1f2633a7b5936321eed1cdaeb6115181d260016040516101bf9190610253565b60405180910390a15b505050505061026e565b60007ff0c57e16840df040f15088dc2f81fe391c3923bec73e23a9662efc9c229c6a00905090565b6000819050919050565b600067ffffffffffffffff82169050919050565b6000819050919050565b600061023d610238610233846101fa565b610218565b610204565b9050919050565b61024d81610222565b82525050565b60006020820190506102686000830184610244565b92915050565b6080516122a461029760003960008181610d2401528181610d790152610f3401526122a46000f3fe60806040526004361061009c5760003560e01c80638da5cb5b116100645780638da5cb5b1461017f578063ad3cb1cc146101aa578063b7dc1284146101d5578063c4d66de814610200578063e3fd0b7b14610229578063f2fde38b146102525761009c565b80634a722a14146100a15780634f1ef286146100de578063513856c8146100fa57806352d1902d1461013d578063715018a614610168575b600080fd5b3480156100ad57600080fd5b506100c860048036038101906100c391906116da565b61027b565b6040516100d59190611821565b60405180910390f35b6100f860048036038101906100f391906118dd565b610569565b005b34801561010657600080fd5b50610121600480360381019061011c9190611965565b610588565b6040516101349796959493929190611a20565b60405180910390f35b34801561014957600080fd5b506101526108b2565b60405161015f9190611acb565b60405180910390f35b34801561017457600080fd5b5061017d6108e5565b005b34801561018b57600080fd5b506101946108f9565b6040516101a19190611ae6565b60405180910390f35b3480156101b657600080fd5b506101bf610931565b6040516101cc9190611b01565b60405180910390f35b3480156101e157600080fd5b506101ea61096a565b6040516101f79190611821565b60405180910390f35b34801561020c57600080fd5b5061022760048036038101906102229190611b23565b610970565b005b34801561023557600080fd5b50610250600480360381019061024b9190611b50565b610b07565b005b34801561025e57600080fd5b5061027960048036038101906102749190611b23565b610c15565b005b6000610285610c9b565b600073ffffffffffffffffffffffffffffffffffffffff168373ffffffffffffffffffffffffffffffffffffffff16036102f4576040517f08c379a00000000000000000000000000000000000000000000000000000000081526004016102eb90611bf8565b60405180910390fd5b600073ffffffffffffffffffffffffffffffffffffffff168273ffffffffffffffffffffffffffffffffffffffff1603610363576040517f08c379a000000000000000000000000000000000000000000000000000000000815260040161035a90611c64565b60405180910390fd5b6040518060e001604052808981526020018881526020018781526020018681526020018581526020018473ffffffffffffffffffffffffffffffffffffffff1681526020018373ffffffffffffffffffffffffffffffffffffffff16815250600080600154815260200190815260200160002060008201518160000190816103eb9190611e90565b5060208201518160010190816104019190611e90565b5060408201518160020190816104179190611e90565b50606082015181600301908161042d9190611e90565b5060808201518160040190816104439190611e90565b5060a08201518160050160006101000a81548173ffffffffffffffffffffffffffffffffffffffff021916908373ffffffffffffffffffffffffffffffffffffffff16021790555060c08201518160060160006101000a81548173ffffffffffffffffffffffffffffffffffffffff021916908373ffffffffffffffffffffffffffffffffffffffff1602179055509050508173ffffffffffffffffffffffffffffffffffffffff168373ffffffffffffffffffffffffffffffffffffffff166001547f35bbba413eb176fcec23abc8645ea044e5bf10a9e17a42a03daa8ca102c60a558b8b8b8b8b60405161053d959493929190611f62565b60405180910390a46001600081548092919061055890612007565b919050559050979650505050505050565b610571610d22565b61057a82610e08565b6105848282610e13565b5050565b60006020528060005260406000206000915090508060000180546105ab90611cb3565b80601f01602080910402602001604051908101604052809291908181526020018280546105d790611cb3565b80156106245780601f106105f957610100808354040283529160200191610624565b820191906000526020600020905b81548152906001019060200180831161060757829003601f168201915b50505050509080600101805461063990611cb3565b80601f016020809104026020016040519081016040528092919081815260200182805461066590611cb3565b80156106b25780601f10610687576101008083540402835291602001916106b2565b820191906000526020600020905b81548152906001019060200180831161069557829003601f168201915b5050505050908060020180546106c790611cb3565b80601f01602080910402602001604051908101604052809291908181526020018280546106f390611cb3565b80156107405780601f1061071557610100808354040283529160200191610740565b820191906000526020600020905b81548152906001019060200180831161072357829003601f168201915b50505050509080600301805461075590611cb3565b80601f016020809104026020016040519081016040528092919081815260200182805461078190611cb3565b80156107ce5780601f106107a3576101008083540402835291602001916107ce565b820191906000526020600020905b8154815290600101906020018083116107b157829003601f168201915b5050505050908060040180546107e390611cb3565b80601f016020809104026020016040519081016040528092919081815260200182805461080f90611cb3565b801561085c5780601f106108315761010080835404028352916020019161085c565b820191906000526020600020905b81548152906001019060200180831161083f57829003601f168201915b5050505050908060050160009054906101000a900473ffffffffffffffffffffffffffffffffffffffff16908060060160009054906101000a900473ffffffffffffffffffffffffffffffffffffffff16905087565b60006108bc610f32565b7f360894a13ba1a3210667c828492db98dca3e2076cc3735a920a3ca505d382bbc60001b905090565b6108ed610c9b565b6108f76000610fb9565b565b600080610904611090565b90508060000160009054906101000a900473ffffffffffffffffffffffffffffffffffffffff1691505090565b6040518060400160405280600581526020017f352e302e3000000000000000000000000000000000000000000000000000000081525081565b60015481565b600061097a6110b8565b905060008160000160089054906101000a900460ff1615905060008260000160009054906101000a900467ffffffffffffffff1690506000808267ffffffffffffffff161480156109c85750825b9050600060018367ffffffffffffffff161480156109fd575060003073ffffffffffffffffffffffffffffffffffffffff163b145b905081158015610a0b575080155b15610a42576040517ff92ee8a900000000000000000000000000000000000000000000000000000000815260040160405180910390fd5b60018560000160006101000a81548167ffffffffffffffff021916908367ffffffffffffffff1602179055508315610a925760018560000160086101000a81548160ff0219169083151502179055505b610a9b866110e0565b610aa36110f4565b8315610aff5760008560000160086101000a81548160ff0219169083151502179055507fc7f505b2f371ae2175ee4913f4499e1f2633a7b5936321eed1cdaeb6115181d26001604051610af6919061209e565b60405180910390a15b505050505050565b6001548210610b4b576040517f08c379a0000000000000000000000000000000000000000000000000000000008152600401610b4290612105565b60405180910390fd5b60008083815260200190815260200160002060060160009054906101000a900473ffffffffffffffffffffffffffffffffffffffff1673ffffffffffffffffffffffffffffffffffffffff163373ffffffffffffffffffffffffffffffffffffffff1614610bee576040517f08c379a0000000000000000000000000000000000000000000000000000000008152600401610be590612197565b60405180910390fd5b806000808481526020019081526020016000206002019081610c109190611e90565b505050565b610c1d610c9b565b600073ffffffffffffffffffffffffffffffffffffffff168173ffffffffffffffffffffffffffffffffffffffff1603610c8f5760006040517f1e4fbdf7000000000000000000000000000000000000000000000000000000008152600401610c869190611ae6565b60405180910390fd5b610c9881610fb9565b50565b610ca36110fe565b73ffffffffffffffffffffffffffffffffffffffff16610cc16108f9565b73ffffffffffffffffffffffffffffffffffffffff1614610d2057610ce46110fe565b6040517f118cdaa7000000000000000000000000000000000000000000000000000000008152600401610d179190611ae6565b60405180910390fd5b565b7f000000000000000000000000000000000000000000000000000000000000000073ffffffffffffffffffffffffffffffffffffffff163073ffffffffffffffffffffffffffffffffffffffff161480610dcf57507f000000000000000000000000000000000000000000000000000000000000000073ffffffffffffffffffffffffffffffffffffffff16610db6611106565b73ffffffffffffffffffffffffffffffffffffffff1614155b15610e06576040517fe07c8dba00000000000000000000000000000000000000000000000000000000815260040160405180910390fd5b565b610e10610c9b565b50565b8173ffffffffffffffffffffffffffffffffffffffff166352d1902d6040518163ffffffff1660e01b8152600401602060405180830381865afa925050508015610e7b57506040513d601f19601f82011682018060405250810190610e7891906121e3565b60015b610ebc57816040517f4c9c8ce3000000000000000000000000000000000000000000000000000000008152600401610eb39190611ae6565b60405180910390fd5b7f360894a13ba1a3210667c828492db98dca3e2076cc3735a920a3ca505d382bbc60001b8114610f2357806040517faa1d49a4000000000000000000000000000000000000000000000000000000008152600401610f1a9190611acb565b60405180910390fd5b610f2d838361115d565b505050565b7f000000000000000000000000000000000000000000000000000000000000000073ffffffffffffffffffffffffffffffffffffffff163073ffffffffffffffffffffffffffffffffffffffff1614610fb7576040517fe07c8dba00000000000000000000000000000000000000000000000000000000815260040160405180910390fd5b565b6000610fc3611090565b905060008160000160009054906101000a900473ffffffffffffffffffffffffffffffffffffffff169050828260000160006101000a81548173ffffffffffffffffffffffffffffffffffffffff021916908373ffffffffffffffffffffffffffffffffffffffff1602179055508273ffffffffffffffffffffffffffffffffffffffff168173ffffffffffffffffffffffffffffffffffffffff167f8be0079c531659141344cd1fd0a4f28419497f9722a3daafe3b4186f6b6457e060405160405180910390a3505050565b60007f9016d09d72d40fdae2fd8ceac6b6234c7706214fd39c1cd1e609a0528c199300905090565b60007ff0c57e16840df040f15088dc2f81fe391c3923bec73e23a9662efc9c229c6a00905090565b6110e86111d0565b6110f181611210565b50565b6110fc6111d0565b565b600033905090565b60006111347f360894a13ba1a3210667c828492db98dca3e2076cc3735a920a3ca505d382bbc60001b611296565b60000160009054906101000a900473ffffffffffffffffffffffffffffffffffffffff16905090565b611166826112a0565b8173ffffffffffffffffffffffffffffffffffffffff167fbc7cd75a20ee27fd9adebab32041f755214dbc6bffa90cc0225b39da2e5c2d3b60405160405180910390a26000815111156111c3576111bd828261136d565b506111cc565b6111cb6113f1565b5b5050565b6111d861142e565b61120e576040517fd7e6bcf800000000000000000000000000000000000000000000000000000000815260040160405180910390fd5b565b6112186111d0565b600073ffffffffffffffffffffffffffffffffffffffff168173ffffffffffffffffffffffffffffffffffffffff160361128a5760006040517f1e4fbdf70000000000000000000000000000000000000000000000000000000081526004016112819190611ae6565b60405180910390fd5b61129381610fb9565b50565b6000819050919050565b60008173ffffffffffffffffffffffffffffffffffffffff163b036112fc57806040517f4c9c8ce30000000000000000000000000000000000000000000000000000000081526004016112f39190611ae6565b60405180910390fd5b806113297f360894a13ba1a3210667c828492db98dca3e2076cc3735a920a3ca505d382bbc60001b611296565b60000160006101000a81548173ffffffffffffffffffffffffffffffffffffffff021916908373ffffffffffffffffffffffffffffffffffffffff16021790555050565b60606000808473ffffffffffffffffffffffffffffffffffffffff16846040516113979190612257565b600060405180830381855af49150503d80600081146113d2576040519150601f19603f3d011682016040523d82523d6000602084013e6113d7565b606091505b50915091506113e785838361144e565b9250505092915050565b600034111561142c576040517fb398979f00000000000000000000000000000000000000000000000000000000815260040160405180910390fd5b565b60006114386110b8565b60000160089054906101000a900460ff16905090565b6060826114635761145e826114dd565b6114d5565b6000825114801561148b575060008473ffffffffffffffffffffffffffffffffffffffff163b145b156114cd57836040517f9996b3150000000000000000000000000000000000000000000000000000000081526004016114c49190611ae6565b60405180910390fd5b8190506114d6565b5b9392505050565b6000815111156114f05780518082602001fd5b6040517fd6bda27500000000000000000000000000000000000000000000000000000000815260040160405180910390fd5b6000604051905090565b600080fd5b600080fd5b600080fd5b600080fd5b6000601f19601f8301169050919050565b7f4e487b7100000000000000000000000000000000000000000000000000000000600052604160045260246000fd5b61158982611540565b810181811067ffffffffffffffff821117156115a8576115a7611551565b5b80604052505050565b60006115bb611522565b90506115c78282611580565b919050565b600067ffffffffffffffff8211156115e7576115e6611551565b5b6115f082611540565b9050602081019050919050565b82818337600083830152505050565b600061161f61161a846115cc565b6115b1565b90508281526020810184848401111561163b5761163a61153b565b5b6116468482856115fd565b509392505050565b600082601f83011261166357611662611536565b5b813561167384826020860161160c565b91505092915050565b600073ffffffffffffffffffffffffffffffffffffffff82169050919050565b60006116a78261167c565b9050919050565b6116b78161169c565b81146116c257600080fd5b50565b6000813590506116d4816116ae565b92915050565b600080600080600080600060e0888a0312156116f9576116f861152c565b5b600088013567ffffffffffffffff81111561171757611716611531565b5b6117238a828b0161164e565b975050602088013567ffffffffffffffff81111561174457611743611531565b5b6117508a828b0161164e565b965050604088013567ffffffffffffffff81111561177157611770611531565b5b61177d8a828b0161164e565b955050606088013567ffffffffffffffff81111561179e5761179d611531565b5b6117aa8a828b0161164e565b945050608088013567ffffffffffffffff8111156117cb576117ca611531565b5b6117d78a828b0161164e565b93505060a06117e88a828b016116c5565b92505060c06117f98a828b016116c5565b91505092959891949750929550565b6000819050919050565b61181b81611808565b82525050565b60006020820190506118366000830184611812565b92915050565b600067ffffffffffffffff82111561185757611856611551565b5b61186082611540565b9050602081019050919050565b600061188061187b8461183c565b6115b1565b90508281526020810184848401111561189c5761189b61153b565b5b6118a78482856115fd565b509392505050565b600082601f8301126118c4576118c3611536565b5b81356118d484826020860161186d565b91505092915050565b600080604083850312156118f4576118f361152c565b5b6000611902858286016116c5565b925050602083013567ffffffffffffffff81111561192357611922611531565b5b61192f858286016118af565b9150509250929050565b61194281611808565b811461194d57600080fd5b50565b60008135905061195f81611939565b92915050565b60006020828403121561197b5761197a61152c565b5b600061198984828501611950565b91505092915050565b600081519050919050565b600082825260208201905092915050565b60005b838110156119cc5780820151818401526020810190506119b1565b60008484015250505050565b60006119e382611992565b6119ed818561199d565b93506119fd8185602086016119ae565b611a0681611540565b840191505092915050565b611a1a8161169c565b82525050565b600060e0820190508181036000830152611a3a818a6119d8565b90508181036020830152611a4e81896119d8565b90508181036040830152611a6281886119d8565b90508181036060830152611a7681876119d8565b90508181036080830152611a8a81866119d8565b9050611a9960a0830185611a11565b611aa660c0830184611a11565b98975050505050505050565b6000819050919050565b611ac581611ab2565b82525050565b6000602082019050611ae06000830184611abc565b92915050565b6000602082019050611afb6000830184611a11565b92915050565b60006020820190508181036000830152611b1b81846119d8565b905092915050565b600060208284031215611b3957611b3861152c565b5b6000611b47848285016116c5565b91505092915050565b60008060408385031215611b6757611b6661152c565b5b6000611b7585828601611950565b925050602083013567ffffffffffffffff811115611b9657611b95611531565b5b611ba28582860161164e565b9150509250929050565b7f496e76616c6964206167656e7420746f6b656e20616464726573730000000000600082015250565b6000611be2601b8361199d565b9150611bed82611bac565b602082019050919050565b60006020820190508181036000830152611c1181611bd5565b9050919050565b7f496e76616c69642044414f206164647265737300000000000000000000000000600082015250565b6000611c4e60138361199d565b9150611c5982611c18565b602082019050919050565b60006020820190508181036000830152611c7d81611c41565b9050919050565b7f4e487b7100000000000000000000000000000000000000000000000000000000600052602260045260246000fd5b60006002820490506001821680611ccb57607f821691505b602082108103611cde57611cdd611c84565b5b50919050565b60008190508160005260206000209050919050565b60006020601f8301049050919050565b600082821b905092915050565b600060088302611d467fffffffffffffffffffffffffffffffffffffffffffffffffffffffffffffffff82611d09565b611d508683611d09565b95508019841693508086168417925050509392505050565b6000819050919050565b6000611d8d611d88611d8384611808565b611d68565b611808565b9050919050565b6000819050919050565b611da783611d72565b611dbb611db382611d94565b848454611d16565b825550505050565b600090565b611dd0611dc3565b611ddb818484611d9e565b505050565b5b81811015611dff57611df4600082611dc8565b600181019050611de1565b5050565b601f821115611e4457611e1581611ce4565b611e1e84611cf9565b81016020851015611e2d578190505b611e41611e3985611cf9565b830182611de0565b50505b505050565b600082821c905092915050565b6000611e6760001984600802611e49565b1980831691505092915050565b6000611e808383611e56565b9150826002028217905092915050565b611e9982611992565b67ffffffffffffffff811115611eb257611eb1611551565b5b611ebc8254611cb3565b611ec7828285611e03565b600060209050601f831160018114611efa5760008415611ee8578287015190505b611ef28582611e74565b865550611f5a565b601f198416611f0886611ce4565b60005b82811015611f3057848901518255600182019150602085019450602081019050611f0b565b86831015611f4d5784890151611f49601f891682611e56565b8355505b6001600288020188555050505b505050505050565b600060a0820190508181036000830152611f7c81886119d8565b90508181036020830152611f9081876119d8565b90508181036040830152611fa481866119d8565b90508181036060830152611fb881856119d8565b90508181036080830152611fcc81846119d8565b90509695505050505050565b7f4e487b7100000000000000000000000000000000000000000000000000000000600052601160045260246000fd5b600061201282611808565b91507fffffffffffffffffffffffffffffffffffffffffffffffffffffffffffffffff820361204457612043611fd8565b5b600182019050919050565b6000819050919050565b600067ffffffffffffffff82169050919050565b600061208861208361207e8461204f565b611d68565b612059565b9050919050565b6120988161206d565b82525050565b60006020820190506120b3600083018461208f565b92915050565b7f4167656e7420646f6573206e6f74206578697374000000000000000000000000600082015250565b60006120ef60148361199d565b91506120fa826120b9565b602082019050919050565b6000602082019050818103600083015261211e816120e2565b9050919050565b7f4f6e6c79207468652044414f2063616e2075706461746520696e73747275637460008201527f696f6e7300000000000000000000000000000000000000000000000000000000602082015250565b600061218160248361199d565b915061218c82612125565b604082019050919050565b600060208201905081810360008301526121b081612174565b9050919050565b6121c081611ab2565b81146121cb57600080fd5b50565b6000815190506121dd816121b7565b92915050565b6000602082840312156121f9576121f861152c565b5b6000612207848285016121ce565b91505092915050565b600081519050919050565b600081905092915050565b600061223182612210565b61223b818561221b565b935061224b8185602086016119ae565b80840191505092915050565b60006122638284612226565b91508190509291505056fea2646970667358221220419bf443e9e1cbb7bd9237f2127835641e838c4205842deabe83314aa426aa9a64736f6c634300081a0033",
  "linkReferences": {},
  "deployedLinkReferences": {}
}